:020000020000FC
:1000000098E077E0D5E0B3E0F6E009E117E023E01F
:100010000C9417000C940A0033274427432D322DEB
:10002000512D500F301D401D342E232E152E0395BB
:10003000023E81F30D9333274427502F011BF0F725
:10004000010F002309F431E0052F021BF0F7020F26
:10005000002309F441E0052F332381F03417F1F038
:10006000099333274427492D382D572D500F301D24
:10007000401D942E832E752E0C940C00442321F1E8
:10008000019333274427462D352D542D500F301D15
:10009000401D642E532E452E0C940C00DF93CF93FD
:1000A000C62FD72F09936C2F7D2FCF91DF91332748
:1000B00044274C2D3B2D5A2D500F301D401DC42E72
:1000C000B32EA52E0C940C00DF93CF93C82FD92FFD
:1000D00009938C2F9D2FCF91DF91332744274F2DEC
:1000E0003E2D5D2D500F301D401DF42EE32ED52EDC
:0400F0000C940C0060
:00000001FF
