:020000020000FC
:1000000088279927AA27BB27CC27DD27EE27FF279C
:100010004EEE5EEE6EEE7EEE0EEE1EEE2EEE3EEE40
:10002000842F952FA62FB72F7F936F935F9370E840
:1000300060E050E280FD02D00C942300C00FD10F8D
:10004000E20FF30F08958695969508F4870FA6950D
:1000500008F4970FB69508F4A70FC69508F4B70FE4
:10006000D69508F4C70FE69508F4D70FF69508F46F
:10007000E70F603011F0F70F662780FD0C94470002
:100080005A9509F75F916F917F910C94450051301B
:10009000C9F3C00FD11FE21FF31F90F761E00C946A
:0200A00040001E
:00000001FF
